:400000000080002011000000710600007106000008B5044B1A6803F53F5302331A6000F02FFB00BFFA46004010B5054C237833B9044B13B10448AFF300800123237010BD5F
:400040006081FF1F0000000024180000084B10B51BB108490848AFF300800848036803B910BD074B002BFBD0BDE81040184700BF000000006481FF1F24180000C880FF1F5A
:40008000000000000122014B1A6070477C81FF1F08B5064B1B68012B07D10020034B988000F0DAFC8C2000F069FF08BD7C81FF1F08B5064B1B68012B07D10120034B9880A4
:4000C00000F0CAFCA02000F059FF08BD7C81FF1FF8B5784B1B68012B40F0EA8000F056FD744B9860B3F904309BBB00F03FFF724C208080B200F0EAFC012000F0C7FC0020F1
:4001000000F0C4FC012000F0FDFB0021084600F053FC6A4800F0E8FB0521002000F04CFC208800F067FC0021012000F045FC644800F0DAFB0521012000F03EFC5D4B1889BC
:4001400000F058FC0F21002000F036FC5D4800F0CBFB584BB3F90430012B40F0A98000F005FF554C6060534EB368C01A01F0DAF8A16801F02BF9544D28602868E16801F0A7
:4001800025F9524F38602868216901F01FF9F16801F014F84E4E306028684E4B196801F00BF8616901F012F9A16901F0C3F94A4D28603868494901F001F8316800F0FEFF67
:4001C000296800F0FBFF01F0C7FA00B2A083C82801DDC822A283384BB3F91C30002B02DA7D22354B9A83344BB3F91C0001F09AF8304B196901F088FA10B1002000F02CFC2F
:400200002D4BB3F91C0001F08DF82A4B196901F099FA10B1012000F01FFC274CA08B00F055FC012000F032FC002000F02FFCB4F91C0001F077F81F4D2861254B1B68EB60EB
:40024000214B1A68234B1A60012000F05BFB0021084600F0B1FB194800F046FB0521002000F0AAFBA08B00F0C5FB0021012000F0A3FB134800F038FB0521012000F09CFBD2
:40028000288900F0B7FB0F21002000F095FB144800F02AFB0921012000F08EFB114800F023FB0D21012000F087FBA08800F0A2FBF8BD00BF7C81FF1FCC80FF1F28180000D0
:4002C0003018000038180000A481FF1FA081FF1FA881FF1FAC81FF1F9C81FF1F0000FA423C1800004018000008B500F041FC00F055FB00F0BDFB00F07FFC00F06DFE00F0A7
:4003000089FD00F025FE00F015FE0021084600F053FB264800F0E8FA0621002000F04CFB234BB3F904306BB9224B188800F062FB0F21002000F040FB1F4800F0D5FA8C209D
:4003400000F01CFE1A4BB3F90430012B0DD1194B988B00F04FFB0F21002000F02DFB174800F0C2FAA02000F009FE0021012000F023FB134800F0B8FA0621012000F01CFB9D
:400380000B4B188900F036FBA02000F007FC62B60C4800F0C7FE0C4800F0ECFE0B4800F0D1FC0B4800F05EFDFEE700BF281800007C81FF1FCC80FF1F381800003C18000068
:4003C0003018000091000000B1000000D100000085000000FEE700BFF0B40022174611E050F82760F3B226F0FF0608E001EB420511F812406D78A5550132013BDBB2002B5A
:40040000F4D10137202FEBD9F0BC7047064B1B78DBB203F00701054A11701B09013213704422034B1A707047CF0100496E5800407658004008B50A46002101F0EAF908BD4A
:4004400038B51722264B1A801823264A137045F6BF5102321180023213700222224B1A7008224FF040231A70032103F5007319701E4B1B78DBB21E490B701E4B1A8041F22C
:400480005122023B1A80002419250CE01A4B1B7803F0010343EA440404F003044FF4F07000F076FE013D0DB1032CEFD115B90320FFF790FF114B4FF480721A8007221A70FF
:4004C00000220F490A704820023108701A700222033B1A700B4A137843F00303137038BD80400040824000400043004008010049A146004022420040254200400440004021
:4005000006400040A243004008B501F077F908BD38B572B63E4A137843F00403137000240CE03C4D630019194A0011462A44084691882858FFF77EFF0134E4B2082CF0D9E9
:4005400000240BE03349A3001819420088188022C16B806BFFF7D8FF0134E4B2002CF1D02D494FF09040FFF737FF2C4A2C4B1A602C4A03F5C0731A602B4A137843F0020391
:4005800013701032137843F002031370274C237843F040032370A2F58632513A137843F010031370082222492248FFF7ADFF0A2221492248FFF7A8FF082221492148FFF7BA
:4005C000A3FF082220492148FFF79EFF082220492048FFF799FF0A221F492048FFF794FF1F4A137843F0080313701E4D61232B70FFF726FF81232B7001221B4B1A70FFF71A
:4006000005FF0E2221461948FFF77EFF38BD00BFE84600404818000084000048C4C404C4D80001400404008403500140A043004094070048025100409C070048F05100406F
:40064000A807004812510040B007004822510040B807004832510040C007004860510040224300400048004004000840B043004008B501F097F803680C2B00D1FEE7FEE73E
:4006800008B5104E104D16E029686B68AC68002204E051F8040B43F8040B0432A242F8D1E868002203E0002143F8041B04328242F9D11035013E002EE6D101F079F8FFF774
:4006C00013FEFEE701000000B018000008B5104A104B1A60104A136843F40073136000230AE0032B03D80D4A52F8231000E00C490C4A42F8231001332F2BF2D90A4B1A783B
:400700000A4B1A70074A0A4B1A60FFF701FF08BD0004FA050CED00E014ED00E000000000710600000080FF1FBC760040C080FF1F08ED00E010B5044605E0084B186800F0D1
:4007400027FDA4F50044B4F5004FF6D8034B586800FB04F000F01CFD10BD00BFEC80FF1F08B5034B1B7A00FB03F000F011FD08BDEC80FF1F10B50B4C237803F09F032370DC
:40078000237803F0F00323702378184340F0100020700120FFF7E4FF237803F0EF03237010BD00BF2051004038B505460E4C237843F020032370237803F0BF0323700020FC
:4007C000FFF7CEFF237803F0F003237023781D4345F0100525700120FFF7C2FF237803F0EF03237038BD00BF2051004070B5354B1A7802F08002D2B21A7033490A7802F04F
:40080000F00242F00F020A7001310A7802F0F0020A7001310A7802F0F0020A701A7802F0DF021A701A7842F040021A704FF4CA760020FFF795FF234D2B7843F010032B7045
:400840000120FFF78DFF214B1C78E4B22B7803F0EF032B700020FFF783FF04F00804E4B22B7843F010032B700120FFF779FF2B7803F0EF032B7014B90A20FFF771FF013E1C
:400880000CB1002ED4D10F4A137803F0BF031370137803F08003DBB213700232137803F0F00313700132137803F0F00343F00F0313700132137803F0F00343F00F0313707B
:4008C00070BD00BF20510040225100402151004010B50446FFF78AFF2009FFF765FF04F00F00FFF761FF10BD38B505460078012404E0FFF7EDFF285D0134E4B20028F8D1E3
:4009000038BD00BF10B50446FFF770FF2009FFF731FF04F00F00FFF72DFF10BD08B52820FFF708FF0320FFF725FF0520FFF702FF0320FFF71FFF0F20FFF7FCFE0320FFF784
:4009400019FF0120FFF7F6FE0220FFF713FF0520FFF7F0FE0620FFF7D5FF0E20FFF7D2FF2C20FFF7CFFF0820FFF7CCFF0120FFF7C9FF0C20FFF7C6FF0320FFF7C3FF05207D
:40098000FFF7D8FE08BD00BF08B50C20FFF7BAFF0122014B1A7008BD9081FF1F08B5054B5B7823B9FFF7BAFF0122024B5A70FFF7EBFF08BD9081FF1F08B5032819D8DFE849
:4009C00000F002070D1381F08000FFF79BFF08BDA1F14000C0B2FFF795FF08BDA1F16C00C0B2FFF78FFF08BDA1F12C00C0B2FFF789FF08BD10B584B000238DF80E300922CF
:400A000011E0144BA3FB0013DB081C4603EB83035900431ADBB2303304A9114401F80C3C2046013AD2B20928EBD80A4BA3FB0013DB0803EB83035900431ADBB2303304A94A
:400A4000114401F80C3C01AB9818FFF74DFF04B010BD00BFCDCCCCCC044A137803F07F03C001C0B218431070704700BF30510040054A137843F0010313701032137843F0AA
:400A800001031370704700BFA2430040044A137803F07F03C001C0B218431070704700BF00510040024A137843F080031370704771640040014B1880704700BF00680040D3
:400AC000014B1880704700BF80680040014B1880704700BF40680040014B1870704700BF81640040014B1878704700BF61640040014B188880B27047A068004008B501E0B1
:400B0000FFF7F6FFFFF7EEFF10F0100FF8D108BD10B5154A137803F0C00343F0090313701F32137843F001031370104C237843F00103237040F2CF70FFF7BCFF40F2CF7029
:400B4000FFF7BEFF6420FFF7C1FF0020FFF7C4FF00F026FB237843F01003237000F024FBFFF7CCFF10BD00BF716400409164004008B5054B1B7823B9FFF7CAFF0122024BD9
:400B80001A70FFF78FFF08BD9281FF1F08B500F05FF8A0F5004000B208BD00BF08B5002803DB80B280F4004002E0A0F5004080B200F048F808BD00BF024B187800F00F0000
:400BC000704700BF63640040014B1870704700BF8364004008B50F20FFF7F6FFFFF7ECFF00F0DEFA034A137843F01003137000F0DBFA08BD9364004008B500F07BF84FF4C2
:400C0000004000F01FF8044B1B7813B90122024B1A70FFF7DFFF08BD9381FF1F024A137843F080031370704775640040014B1870704700BF82640040014B1878704700BF58
:400C400062640040014B1880704700BF08680040024B1B78024B188880B270470464004088680040014B188880B2704788680040014B1880704700BF48680040014B1880A3
:400C8000704700BF6868004008B501E0FFF7EAFFFFF7D2FF10F0400FF8D108BD08B5134B1A7802F0F8021A701A7802F0FC021A70FFF7EAFF4FF40040FFF7DAFF4FF40040AA
:400CC000FFF7C0FF0020FFF7B1FFFFF7B5FF4FF40040FFF7D3FF00F063FA054A137843F01003137000F060FA08BD00BF756400409264004008B5054B1B7823B9FFF7CEFF38
:400D00000122024B1A70FFF789FF08BD9481FF1F014B1B689864704708ED00E04001C0B2014B1870704700BF02E400E00422014B1A60704700E100E00422014B1A60704722
:400D400080E100E010B50446FFF7F6FF2046FFF7DFFF0720FFF7E2FFFFF7E8FF10BD00BF084A137843F0010313701032137843F00103137002F64D32137843F001031370BD
:400D8000704700BFA3430040014B1870704700BF034F0040014B1880704700BF044F0040014B1880704700BF064F004008B5164A137803F0010313700232137803F0FC030C
:400DC0001370124B1A7802F0CF021A701A7842F030021A701A7802F0F0021A701A7842F00F021A700A4A137843F00103137042F20F70FFF7CFFF42F20F70FFF7D1FF0020AC
:400E0000FFF7C2FF08BD00BF004F00400B4F0040014F004008B5054B1B7823B9FFF7C6FF0122024B1A70FFF79BFF08BD9581FF1F014B1B68D864704708ED00E04001C0B2BA
:400E4000014B1870704700BF03E400E00822014B1A60704700E100E00822014B1A60704780E100E010B50446FFF7F6FF2046FFF7DFFF0720FFF7E2FFFFF7E8FF10BD00BF76
:400E8000084A137843F0020313701032137843F00203137002F65932137843F001031370704700BFA3430040014B1870704700BF0F4F0040014B1880704700BF104F0040CD
:400EC000014B1880704700BF124F004008B5164A137803F0010313700232137803F0FC031370124B1A7802F0CF021A701A7842F030021A701A7802F0F0021A701A7842F021
:400F00000F021A700A4A137843F00103137041F26F70FFF7CFFF41F26F70FFF7D1FF0020FFF7C2FF08BD00BF0C4F0040174F00400D4F004008B5054B1B7823B9FFF7C6FF60
:400F40000122024B1A70FFF79BFF08BD9681FF1F054A137843F0020313701032137843F002031370704700BFA243004008B500F05FF8A0F5004000B208BD00BF08B5002841
:400F800003DB80B280F4004002E0A0F5004080B200F048F808BD00BF024B187800F00F00704700BF65650040014B1870704700BF8565004008B50F20FFF7F6FFFFF7ECFF48
:400FC00000F0EEF8034A137843F01003137000F0EBF808BD9565004008B500F07BF84FF4004000F01FF8044B1B7813B90122024B1A70FFF7DFFF08BD9781FF1F024A1378B0
:4010000043F080031370704777650040014B1870704700BF84650040014B1878704700BF64650040014B1880704700BF0C6A0040024B1B78024B188880B270470665004065
:401040008C6A0040014B188880B270478C6A0040014B1880704700BF4C6A0040014B1880704700BF6C6A004008B501E0FFF7EAFFFFF7D2FF10F0400FF8D108BD08B5134B33
:401080001A7802F0F8021A701A7802F0FC021A70FFF7EAFF4FF40040FFF7DAFF4FF40040FFF7C0FF0020FFF7B1FFFFF7B5FF4FF40040FFF7D3FF00F073F8054A137843F090
:4010C0001003137000F070F808BD00BF776500409465004008B5054B1B7823B9FFF7CEFF0122024B1A70FFF789FF08BD9881FF1F014B1B685864704708ED00E04001C0B2AC
:40110000014B1870704700BF01E400E00222014B1A60704700E100E00222014B1A60704780E100E010B50446FFF7F6FF2046FFF7DFFF0720FFF7E2FFFFF7E8FF10BD00BFC1
:40114000014B1B681864704708ED00E04001C0B2014B1870704700BF00E400E00122014B1A60704700E100E00122014B1A60704780E100E010B50446FFF7F6FF2046FFF73F
:40118000DFFF0720FFF7E2FFFFF7E8FF10BD00BF0230800803D000BF01380046FCD17047EFF3108072B6704780F31088704700BF80F0004002E000BF81F0004142001FBFA6
:4011C0005FEA410392EA030F7FEA226C7FEA236C6AD04FEA1262D2EB1363C1BFD218414048404140B8BF5B42192B88BF704710F0004F40F4000020F07F4018BF404211F0D5
:40120000004F41F4000121F07F4118BF494292EA030F3FD0A2F1010241FA03FC10EB0C00C3F1200301FA03F100F0004302D5494260EB4000B0F5000F13D3B0F1807F06D389
:4012400040084FEA310102F10102FE2A51D2B1F1004F40EBC25008BF20F0010040EA03007047490040EB000010F4000FA2F10102EDD1B0FA80FCACF1080CB2EB0C0200FA39
:401280000CF0AABF00EBC25052421843BCBFD0401843704792F0000F81F4000106BF80F400000132013BB5E74FEA41037FEA226C18BF7FEA236C21D092EA030F04D092F0DD
:4012C000000F08BF0846704790EA010F1CBF0020704712F07F4F04D1400028BF40F00040704712F100723CBF00F50000704700F0004343F0FE4040F4000070477FEA22624C
:4013000016BF08467FEA23630146420206BF5FEA412390EA010F40F4800070474FF0000304E000BF10F0004348BF40425FEA000C08BF704743F0964301464FF000001CE097
:4013400050EA010208BF70474FF000030AE000BF50EA010208BF704711F0004302D5404261EB41015FEA010C02BF84460146002043F0B64308BFA3F18053A3F50003BCFAEE
:401380008CF2083AA3EBC25310DB01FA02FC634400FA02FCC2F12002BCF1004F20FA02F243EB020008BF20F00100704702F1200201FA02FCC2F1200250EA4C0021FA02F231
:4013C00043EB020008BF20EADC7070474FF0FF0C1CEAD0521EBF1CEAD15392EA0C0F93EA0C0F6FD01A4480EA010C400218BF5FEA41211ED04FF0006343EA501043EA5111BD
:40140000A0FB01310CF00040B1F5000F3EBF490041EAD3715B0040EA010062F17F02FD2A1DD8B3F1004F40EBC25008BF20F00100704790F0000F0CF0004C08BF49024CEAE5
:40144000502040EA51207F3AC2BFD2F1FF0340EAC250704740F400004FF00003013A5DDC12F1190FDCBF00F000407047C2F10002410021FA02F1C2F1200200FA02FC5FEABE
:40148000310040F1000053EA4C0308BF20EADC70704792F0000F00F0004C02BF400010F4000F013AF9D040EA0C0093F0000F01F0004C02BF490011F4000F013BF9D041EA32
:4014C0000C018FE70CEAD15392EA0C0F18BF93EA0C0F0AD030F0004C18BF31F0004CD8D180EA010000F00040704790F0000F17BF90F0004F084691F0000F91F0004F14D0FE
:4015000092EA0C0F01D142020FD193EA0C0F03D14B0218BF084608D180EA010000F0004040F0FE4040F40000704740F0FE4040F4400070474FF0FF0C1CEAD0521EBF1CEA85
:40154000D15392EA0C0F93EA0C0F69D0A2EB030280EA010C49024FEA402037D04FF0805343EA111143EA10130CF000408B4238BF5B0042F17D024FF4000C8B4224BF5B1AB9
:4015800040EA0C00B3EB510F24BFA3EB510340EA5C00B3EB910F24BFA3EB910340EA9C00B3EBD10F24BFA3EBD10340EADC001B0118BF5FEA1C1CE0D1FD2A3FF650AF8B428D
:4015C00040EBC25008BF20F0010070470CF0004C4CEA50207F32C2BFD2F1FF0340EAC250704740F400004FF00003013A37E792F0000F00F0004C02BF400010F4000F013A5C
:40160000F9D040EA0C0093F0000F01F0004C02BF490011F4000F013BF9D041EA0C0195E70CEAD15392EA0C0F08D142027FF47DAF93EA0C0F7FF470AF084676E793EA0C0F2B
:4016400004D14B023FF44CAF08466EE730F0004C18BF31F0004CCAD130F000427FF45CAF31F000437FF43CAF5FE700BF4FF0FF3C06E000BF4FF0010C02E000BF4FF0010C2D
:401680004DF804CD4FEA40024FEA41037FEA226C18BF7FEA236C11D001B052EA530C18BF90EA010F58BFB2EB030088BFC81738BF6FEAE17018BF40F0010070477FEA226C94
:4016C00002D15FEA402C05D17FEA236CE4D15FEA412CE1D05DF8040B704700BF844608466146FFE70FB5FFF7C9FF002848BF10F1000F0FBD4DF808EDFFF7F4FF0CBF01205D
:4017000000205DF808FB00BF4DF808EDFFF7EAFF34BF012000205DF808FB00BF4DF808EDFFF7E0FF94BF012000205DF808FB00BF4DF808EDFFF7D2FF94BF012000205DF86A
:4017400008FB00BF4DF808EDFFF7C8FF34BF012000205DF808FB00BF4FEA4002B2F1FE4F0FD34FF09E03B3EB12620DD94FEA002343F0004310F0004F23FA02F018BF4042B7
:4017800070474FF00000704712F1610F01D1420205D110F0004008BF6FF0004070474FF000007047014B1868704700BF5C81FF1F0E4B70B51E460E4C0025E41AA410A54293
:4017C00004D056F8253098470135F8E700F05EF8084B094C1E46E41AA4100025A54204D056F8253098470135F8E770BD981800009818000098180000A018000010B5431EE8
:401800000A44914204D011F8014B03F8014FF8E710BD03460244934202D003F8011BFAE770470000000000004374726C3A000000416E67753A0000004D0000004100000060
:401840007265663A00000000004F00401800405100402000C0510040100000000140001000140140800200170140000500400140000A004C014000020050014020000000A8
:40188000801601401407004880004300F8B500BFF8BC08BC9E4670474D000000CD060000F8B500BFF8BC08BC9E46704729000000C0180000C880FF1F9800000050000000BE
:4018C0000000000078000000A20000009A99193E000020410AD7233C0000FA430AD7233C640000000000E02EC05D00001800000000366E01000000000000000000000000DA
:4019000000000000000000000000000000000000000000008A1800000000000000000000000000000000000000000000000000000000000000000000000000000000000005
:401940000000000000000000000000000000000000000000FC80FF1F00000000000000000000000000000000000000000000000000000000000000000000000000000000CD
:401980000000000000000000000000000000000000000000000000000000000000000000000000000000000000000000000000000000000000000000000000000000000027
:4019C00000000000000000000000000000000000000000000000000000000000000000000000000000000000000000000000000000000000000000000000000000000000E7
:401A000000000000000000000000000000000000000000000000000000000000000000000000000000000000000000000000000000000000000000000000000000000000A6
:401A40000000000000000000000000000000000000000000000000000000000000000000000000000000000000000000000000000000000000000000000000000000000066
:020000040003F7
:0200000480007A
:40000000034F0040035200400364004002650040500001402A0101403A0201403A0301405C0401403A0501405006014038070140020B0140070D01400B0E01400A0F0140C4
:400040003A140140411501401716014034170140041A0140031B0140044001400E4101400942014002430140074401400545014003460140054801400E490140055001401E
:40008000015101400A360D1016361940300C3108810D826F830F846F850F0F081502170119011B061D011F0221012201230230013303350837043B084015410349FF4AFF28
:4000C0004BFF4DA04F045018580459045A045F01604062C06440654066C068C06AC06CC06EC08707900293029D019E04A604AE01B101B202B302B404B601B704BC80BD022C
:40010000BE14C045C103C5D1C620C80BC9FFCAFFCBFFCDAFCE0FCF04D018D280D405D804D904DA04DB04DF05E040E2C0E440E540E6C0E8C0EAC0ECC0EEC00C410E02130212
:400140001620174019011C011D081E0A225C230224402680272029013254368139403F08400142204440462049804B804D804F0956205C405E085F0177407FC0C290C4A881
:40018000CA01CC9ECE48D0CAD218D6D0DE8003010E0416031802280430043301340136023E41540F580459045B045F058110830884188602882089038C168E088F019018E0
:4001C000920494019506981099189A029F18A001A107A260A40EA502A704A905AA1EAB02AD06AF01B01EB107B240B420B510B601B708B880BE10BF50D40FD804D904DB04A1
:40020000DF010210030B0602082009080A400D080E280F201080122813081710188419421A401B081C401E0A2101225023402710282029222A102B0231403204331039204A
:400240003B413E025AA05B095C445E22660467047E208380920895409C01A208A780AF20B508C087C26EC44ECA0FCC0ECE8DD6FFD860DE40EE09089E0A600CFD0D600E0216
:400280000F0410CF123015011702189419371A601F07220F230824732504283029612AC92B022D5730FF3570370F39203E014063410149FF4AFF4BFF4DA04F01501858042A
:4002C00059045A045F016040628064406540668068406A806C406D206E8087018C0294019C01A206A801AE02B201B301B402B604B808BE14C023C104C53CC620C74EC83B20
:40030000C9FFCAFFCBFFCDAFCE07CF01D018D280D804D904DA04DB04DF01E040E280E440E540E680E840EA80EC40ED20EE8000200120030205400A480F22112012A015320F
:40034000178019021C081D68215022A023032710282029222B0232A438803C0441484528470248044C804F065606571077807C207D209080910292489520970598019C2042
:400380009D209E06A208A480A620A712AC01B540C083C2AAC4DECA0FCC0ECE48D0EAD204E8400173059E0760080C0A430C130E2C113013C915FD16701702187F1C771D943A
:4003C0001F602045220A241A25CF262527302A802B0F32F033FF340F3F04580459045F01808081028210830184C0850186208702880789708C0F8D018F0A900C920394B0F1
:40040000958096409710980599019A0A9B029C709DC09F10A1B0A2F0A340A4C0A610A7F0A803A9C0AA0CAB20AC0AAE05AF04B00FB104B3F0B4F0B508B703BB80D804D9044C
:40044000DF01000201100322056009100AC10B200D080E080F0210421208130C172A19211B221D081E081F18202621402343272029012AA42F28324833103440354036046C
:400480003702380439103B413E013F06451046048412862091109240940498019B10A208A410A510A702C0CFC2EFC47FCA6FCCDECECFB502E8409D02AA02AB08AD80AF01DB
:4004C000EA01EC120C02180121013002320137013E053F40580459045F0102020B081B09218029028704C001C202CA01E60805010C020E01100112061401150416021703D6
:4005000018011A0A1E102104300832043302341035043603370139203A803F40540F580459045B045F0583018508871089088B109510960297089B069E04A507A904AA0132
:40054000AB02AD08AF10B002B101B201B304B404B518B702BB20BF45D40FD804D904DB04DF01018008800AA40E200F011608171019C01AA41E301F222104222023022510F3
:40058000264027682A012F2A30083620370839083E183F014808491059105A085B425C085D025E805F2061247B018080868088088B018D028E049208930199049A019B1098
:4005C0009D409E80A008A120A204A309A510C001C2AFC440CA71CC62CEE2D6FFD806DE08E204E602130133014056410349FF4AFF4BFF4DA04F01501859045A045F0160407D
:40060000628064406540668068406A806C406D206E800012032208400A400B20100A1280130418101A051B572285230427102A012B25304031403201340139803B24410856
:400640004205450849044B014FA0500A51205201724091809320970498019D409E80A001A108A204A328A510A701C00FC20DC40FCA0FCC89CE0ED04ED23039A03F50590423
:400680005F0121A081208580320433203748CCF0032007200B028301930496089F08AB40AF24C030C240E420EA40EE9012801708930496089F08AF20B720C430E8409304B6
:4006C000AE84050254205E808502C004D402D6049E80AA80AE40B420EC0806809E80C00467406B109304D880DA40034007806304835087C0930497409F10C030D840E04053
:40070000E220E480E640000108010A0110011A0100FF000040008000EC180004001630086700001E00011000CA00200000000000C010000210000041AC184002010000200D
:40074000010E00000E40E001011E1020220000000000500412030000004EC0323BFFFFFF00AF07011800800000000000040404040000000140008000404080004000800009
:40078000402080000000000000000000000000000000000043C0800000000000200000200000000000000000000B0B0000000000007F7F000000000003C0C00040000000BF
:4007C0000200000E0C000C000000000000000000000000000000000000000000000000000000000000000000000000000000000000000000000000000000000000000000D1
:4008000000000000000000000000000000000000000000000000000000000000000000000000000000000000000000000000000000000000000000000000000000000000B8
:400840000000000000000000000000000000000000000000000000000000000000000000000000000000000000000000000000000000000000000000000000000000000078
:400880000000000000000000000000000000000000000000000000000000000000000000000000000000000000000000000000000000000000000000000000000000000038
:4008C00000000000000000000000000000000000000000000000000000000000000000000000000000000000000000000000000000000000000000000000000000000000F8
:0200000490006A
:0400000000004005B7
:0200000490105A
:04000000BC90ACAF55
:0200000490303A
:020000001747A0
:0200000490402A
:4000000000000000000000000000000000000000000000000000000000000000000000000000000000000000000000000000000000000000000000000000000000000000C0
:400040000000000000000000000000000000000000000000000000000000000000000000000000000000000000000000000000000000000000000000000000000000000080
:400080000000000000000000000000000000000000000000000000000000000000000000000000000000000000000000000000000000000000000000000000000000000040
:4000C0000000000000000000000000000000000000000000000000000000000000000000000000000000000000000000000000000000000000000000000000000000000000
:0200000490501A
:0C00000000012E12306900012E1E47B0D6
:00000001FF