:400000000080002011000000750500007505000008B5044B1A6803F53F5302331A6000F0B1FA00BFFA46004010B5054C237833B9044B13B10448AFF300800123237010BDD8
:400040006081FF1F0000000060130000084B10B51BB108490848AFF300800848036803B910BD074B002BFBD0BDE81040184700BF000000006481FF1F60130000C880FF1FEC
:40008000000000001B4BB3F90000C72830DC10B5013080B21C46188000F0EAFC012000F077FC002000F074FC012000F057FC012000F0AAFB0021084600F000FC0E4800F07C
:4000C00095FB0A21002000F0F9FB208800F014FC0021012000F0F2FB084800F087FB0A21012000F0EBFB064B188800F005FC10BD704700BFCC80FF1F64130000701300000D
:400100007C81FF1F1B4BB3F90000642830DD10B5013880B21C46188000F0AAFC012000F037FC002000F034FC002000F017FC012000F06AFB0021084600F0C0FB0E4800F0BC
:4001400055FB0A21002000F0B9FB208800F0D4FB0021012000F0B2FB084800F047FB0A21012000F0ABFB064B188800F0C5FB10BD704700BFCC80FF1F64130000701300004E
:400180007C81FF1FF8B500F0D3FC2D4B1860012000F03AFB0021084600F090FB294800F025FB0A21002000F089FB274BB3F902301BB9254B188800F09FFB234BB3F902304E
:4001C000012B2CD1204D1E4C68682368C01A00F0BDFE1E4E30603068A96800F00BFF1C4F38603068616800F0FDFDE96800F002FF184B18603A68A2601B686360164B1B6847
:40020000E3603268154B1A603868154900F0EAFD01F040F800B2288280B200F06DFB0021012000F04BFB0F4800F0E0FA0A21012000F044FB024B188800F05EFBF8BD00BF65
:400240007C81FF1F64130000CC80FF1F9C81FF1F9881FF1FA081FF1F9481FF1FA481FF1F000025437013000008B500F053FC00F017FB00F07FFB00F083FC00F08FFD0021FC
:40028000084600F01BFB194800F0B0FA0A21002000F014FB164BB3F902301BB9144B188800F02AFB124BB3F90230012B03D1104B188A00F021FB0021012000F0FFFA0D48BA
:4002C00000F094FA0A21012000F0F8FA0A4B188800F012FB62B6094800F080FB084800F0A5FB084800F0F2FCFEE700BF64130000CC80FF1F701300007C81FF1F85000000D6
:400300000501000085010000FEE700BFF0B40022174611E050F82760F3B226F0FF0608E001EB420511F812406D78A5550132013BDBB2002BF4D101371A2FEBD9F0BC704701
:40034000064B1B78DBB203F00701054A11701B09013213704422034B1A707047CF0100496E5800407658004008B50A46002100F0EEFF08BD38B51722244B1A8018220233D7
:400380001A70022203F27E231A7008224FF040231A70032103F5007319701D4B1B78DBB21C490B701C4B1A8041F25122023B1A80002419250CE0194B1B7803F0010343EAB2
:4003C000440404F003044FF4F07000F0F5FC013D0DB1032CEFD115B90320FFF795FF104B4FF480721A8007221A7000220D490A704820023108701A700222033B1A700A4A24
:40040000137843F00103137038BD00BF8040004008010049A146004022420040254200400440004006400040A243004008B500F083FF08BD38B572B6364A137843F0040382
:40044000137000240CE0344D630019194A0011462A44084691882858FFF786FF0134E4B2072CF0D92D494FF09040FFF74FFF2C4A2C4B1A602C4A03F5D0631A602B4A137850
:4004800043F0020313701032137843F002031370274C237843F040032370A2F58632513A137843F010031370082222492248FFF7BDFF0A2221492248FFF7B8FF08222149C2
:4004C0002148FFF7B3FF082220492148FFF7AEFF082220492048FFF7A9FF0A221F492048FFF7A4FF1F4A137843F0080313701E4D61232B70FFF73EFF81232B7001221B4BE4
:400500001A70FFF71DFF0E2221461948FFF78EFF38BD00BFE8460040781300006C0000480404008458000140C4C404C403500140A04300400C0500480251004014050048CA
:40054000F05100402005004812510040280500482251004030050048325100403805004860510040224300400048004004000840B043004008B500F0B3FE03680C2B00D18F
:40058000FEE7FEE708B5104E104D16E029686B68AC68002204E051F8040B43F8040B0432A242F8D1E868002203E0002143F8041B04328242F9D11035013E002EE6D100F013
:4005C00095FEFFF751FEFEE701000000D013000008B5104A104B1A60104A136843F40073136000230AE0032B03D80D4A52F8231000E00C490C4A42F8231001332F2BF2D941
:400600000A4B1A780A4B1A70074A0A4B1A60FFF711FF08BD0004FA050CED00E014ED00E000000000750500000080FF1FBC760040C080FF1F08ED00E010B5044605E0084B48
:40064000186800F0B9FBA4F50044B4F5004FF6D8034B586800FB04F000F0AEFB10BD00BFEC80FF1F08B5034B1B7A00FB03F000F0A3FB08BDEC80FF1F10B50B4C237803F0F2
:400680009F032370237803F0F00323702378184340F0100020700120FFF7E4FF237803F0EF03237010BD00BF2051004038B505460E4C237843F020032370237803F0BF037B
:4006C00023700020FFF7CEFF237803F0F003237023781D4345F0100525700120FFF7C2FF237803F0EF03237038BD00BF2051004070B5354B1A7802F08002D2B21A70334911
:400700000A7802F0F00242F00F020A7001310A7802F0F0020A7001310A7802F0F0020A701A7802F0DF021A701A7842F040021A704FF4CA760020FFF795FF234D2B7843F080
:4007400010032B700120FFF78DFF214B1C78E4B22B7803F0EF032B700020FFF783FF04F00804E4B22B7843F010032B700120FFF779FF2B7803F0EF032B7014B90A20FFF71E
:4007800071FF013E0CB1002ED4D10F4A137803F0BF031370137803F08003DBB213700232137803F0F00313700132137803F0F00343F00F0313700132137803F0F00343F062
:4007C0000F03137070BD00BF20510040225100402151004010B50446FFF78AFF2009FFF765FF04F00F00FFF761FF10BD38B505460078012404E0FFF7EDFF285D0134E4B240
:400800000028F8D138BD00BF10B50446FFF770FF2009FFF731FF04F00F00FFF72DFF10BD08B52820FFF708FF0320FFF725FF0520FFF702FF0320FFF71FFF0F20FFF7FCFEAD
:400840000320FFF719FF0120FFF7F6FE0220FFF713FF0520FFF7F0FE0620FFF7D5FF0E20FFF7D2FF2C20FFF7CFFF0820FFF7CCFF0120FFF7C9FF0C20FFF7C6FF0320FFF74C
:40088000C3FF0520FFF7D8FE08BD00BF08B50C20FFF7BAFF0122014B1A7008BD8C81FF1F08B5054B5B7823B9FFF7BAFF0122024B5A70FFF7EBFF08BD8C81FF1F08B5032823
:4008C00019D8DFE800F002070D1381F08000FFF79BFF08BDA1F14000C0B2FFF795FF08BDA1F16C00C0B2FFF78FFF08BDA1F12C00C0B2FFF789FF08BD10B584B000238DF881
:400900000E30092211E0144BA3FB0013DB081C4603EB83035900431ADBB2303304A9114401F80C3C2046013AD2B20928EBD80A4BA3FB0013DB0803EB83035900431ADBB2F2
:40094000303304A9114401F80C3C01AB9818FFF74DFF04B010BD00BFCDCCCCCC044A137803F07F03C001C0B218431070704700BF30510040054A137843F001031370103259
:40098000137843F001031370704700BFA2430040044A137803F07F03C001C0B218431070704700BF00510040014B1B681864704708ED00E04001C0B2014B1870704700BF20
:4009C00000E400E00122014B1A60704700E100E00122014B1A60704780E100E010B50446FFF7F6FF2046FFF7DFFF0720FFF7E2FFFFF7E8FF10BD00BF014B1B685864704714
:400A000008ED00E04001C0B2014B1870704700BF01E400E00222014B1A60704700E100E00222014B1A60704780E100E010B50446FFF7F6FF2046FFF7DFFF0720FFF7E2FFA9
:400A4000FFF7E8FF10BD00BF024A137843F080031370704777640040014B1880704700BF0C680040014B1880704700BF8C680040014B1880704700BF4C680040014B18706D
:400A8000704700BF87640040014B1878704700BF67640040014B188880B27047AC68004008B501E0FFF7F6FFFFF7EEFF10F0100FF8D108BD10B5154A137803F0C00343F05E
:400AC000090313701F32137843F001031370104C237843F00103237040F2CF70FFF7BCFF40F2CF70FFF7BEFF6420FFF7C1FF0020FFF7C4FF00F068F9237843F010032370F2
:400B000000F066F9FFF7CCFF10BD00BF776400409764004008B5054B1B7823B9FFF7CAFF0122024B1A70FFF78FFF08BD8E81FF1F08B500F051F8A0F5004000B208BD00BF17
:400B4000024B187800F00F00704700BF65640040014B1870704700BF8564004008B50F20FFF7F6FFFFF7ECFF00F02EF9034A137843F01003137000F02BF908BD9564004025
:400B800008B500F07BF84FF4004000F01FF8044B1B7813B90122024B1A70FFF7DFFF08BD8F81FF1F024A137843F080031370704772640040014B1870704700BF80640040D1
:400BC000014B1878704700BF60640040014B1880704700BF04680040024B1B78024B188880B270470264004084680040014B188880B2704784680040014B1880704700BFB6
:400C000044680040014B1880704700BF6468004008B501E0FFF7EAFFFFF7D2FF10F0400FF8D108BD08B5134B1A7802F0F8021A701A7802F0FC021A70FFF7EAFF4FF40040B0
:400C4000FFF7DAFF4FF40040FFF7C0FF0020FFF7B1FFFFF7B5FF4FF40040FFF7D3FF00F0B3F8054A137843F01003137000F0B0F808BD00BF726400409064004008B5054B01
:400C80001B7823B9FFF7CEFF0122024B1A70FFF789FF08BD9081FF1F014B1B689864704708ED00E04001C0B2014B1870704700BF02E400E00422014B1A60704700E100E018
:400CC0000422014B1A60704780E100E010B50446FFF7F6FF2046FFF7DFFF0720FFF7E2FFFFF7E8FF10BD00BF084A137843F0010313701032137843F00103137002F64D32E0
:400D0000137843F001031370704700BFA3430040014B1870704700BF034F0040014B1880704700BF044F0040014B1880704700BF064F004008B5164A137803F001031370F8
:400D40000232137803F0FC031370124B1A7802F0CF021A701A7842F030021A701A7802F0F0021A701A7842F00F021A700A4A137843F00103137041F28730FFF7CFFF41F2AA
:400D80008730FFF7D1FF0020FFF7C2FF08BD00BF004F00400B4F0040014F004008B5054B1B7823B9FFF7C6FF0122024B1A70FFF79BFF08BD9181FF1F0230800803D000BFA0
:400DC00001380046FCD17047EFF3108072B6704780F31088704700BF80F0004002E000BF81F0004142001FBF5FEA410392EA030F7FEA226C7FEA236C6AD04FEA1262D2EB4D
:400E00001363C1BFD218414048404140B8BF5B42192B88BF704710F0004F40F4000020F07F4018BF404211F0004F41F4000121F07F4118BF494292EA030F3FD0A2F101025B
:400E400041FA03FC10EB0C00C3F1200301FA03F100F0004302D5494260EB4000B0F5000F13D3B0F1807F06D340084FEA310102F10102FE2A51D2B1F1004F40EBC25008BF4F
:400E800020F0010040EA03007047490040EB000010F4000FA2F10102EDD1B0FA80FCACF1080CB2EB0C0200FA0CF0AABF00EBC25052421843BCBFD0401843704792F0000F67
:400EC00081F4000106BF80F400000132013BB5E74FEA41037FEA226C18BF7FEA236C21D092EA030F04D092F0000F08BF0846704790EA010F1CBF0020704712F07F4F04D164
:400F0000400028BF40F00040704712F100723CBF00F50000704700F0004343F0FE4040F4000070477FEA226216BF08467FEA23630146420206BF5FEA412390EA010F40F4FE
:400F4000800070474FF0000304E000BF10F0004348BF40425FEA000C08BF704743F0964301464FF000001CE050EA010208BF70474FF000030AE000BF50EA010208BF7047C7
:400F800011F0004302D5404261EB41015FEA010C02BF84460146002043F0B64308BFA3F18053A3F50003BCFA8CF2083AA3EBC25310DB01FA02FC634400FA02FCC2F1200258
:400FC000BCF1004F20FA02F243EB020008BF20F00100704702F1200201FA02FCC2F1200250EA4C0021FA02F243EB020008BF20EADC7070474FF0FF0C1CEAD0521EBF1CEA57
:40100000D15392EA0C0F93EA0C0F6FD01A4480EA010C400218BF5FEA41211ED04FF0006343EA501043EA5111A0FB01310CF00040B1F5000F3EBF490041EAD3715B0040EAE1
:40104000010062F17F02FD2A1DD8B3F1004F40EBC25008BF20F00100704790F0000F0CF0004C08BF49024CEA502040EA51207F3AC2BFD2F1FF0340EAC250704740F4000070
:401080004FF00003013A5DDC12F1190FDCBF00F000407047C2F10002410021FA02F1C2F1200200FA02FC5FEA310040F1000053EA4C0308BF20EADC70704792F0000F00F070
:4010C000004C02BF400010F4000F013AF9D040EA0C0093F0000F01F0004C02BF490011F4000F013BF9D041EA0C018FE70CEAD15392EA0C0F18BF93EA0C0F0AD030F0004C50
:4011000018BF31F0004CD8D180EA010000F00040704790F0000F17BF90F0004F084691F0000F91F0004F14D092EA0C0F01D142020FD193EA0C0F03D14B0218BF084608D166
:4011400080EA010000F0004040F0FE4040F40000704740F0FE4040F4400070474FF0FF0C1CEAD0521EBF1CEAD15392EA0C0F93EA0C0F69D0A2EB030280EA010C49024FEA74
:40118000402037D04FF0805343EA111143EA10130CF000408B4238BF5B0042F17D024FF4000C8B4224BF5B1A40EA0C00B3EB510F24BFA3EB510340EA5C00B3EB910F24BFF6
:4011C000A3EB910340EA9C00B3EBD10F24BFA3EBD10340EADC001B0118BF5FEA1C1CE0D1FD2A3FF650AF8B4240EBC25008BF20F0010070470CF0004C4CEA50207F32C2BF05
:40120000D2F1FF0340EAC250704740F400004FF00003013A37E792F0000F00F0004C02BF400010F4000F013AF9D040EA0C0093F0000F01F0004C02BF490011F4000F013BE3
:40124000F9D041EA0C0195E70CEAD15392EA0C0F08D142027FF47DAF93EA0C0F7FF470AF084676E793EA0C0F04D14B023FF44CAF08466EE730F0004C18BF31F0004CCAD1D9
:4012800030F000427FF45CAF31F000437FF43CAF5FE700BF4FEA4002B2F1FE4F0FD34FF09E03B3EB12620DD94FEA002343F0004310F0004F23FA02F018BF404270474FF0E3
:4012C0000000704712F1610F01D1420205D110F0004008BF6FF0004070474FF000007047014B1868704700BF5C81FF1F0E4B70B51E460E4C0025E41AA410A54204D056F82C
:40130000253098470135F8E700F050F8084B094C1E46E41AA4100025A54204D056F8253098470135F8E770BDB8130000B8130000B8130000C013000010B5431E0A4491424F
:4013400004D011F8014B03F8014FF8E710BD03460244934202D003F8011BFAE77047000000000000636F6E74726F6C3A00000000616E67756C6F3A00004F00400C00405141
:4013800000402000C0510040100000000140001000140140000800400140000A004C0140000200500140200043000000F8B500BFF8BC08BC9E4670474D000000D10500000E
:4013C000F8B500BFF8BC08BC9E46704729000000E0130000C880FF1F98000000480000000000000078000100500000005A647B3F643B1F3E6400000066E625434339D13C2E
:401400000AD7A33B0000E02EC05D00001800000000366E010000000000000000000000000000000000000000000000000000000000000000A813000000000000000000004A
:4014400000000000000000000000000000000000000000000000000000000000000000000000000000000000000000000000000000000000FC80FF1F0000000000000000D2
:40148000000000000000000000000000000000000000000000000000000000000000000000000000000000000000000000000000000000000000000000000000000000002C
:4014C00000000000000000000000000000000000000000000000000000000000000000000000000000000000000000000000000000000000000000000000000000000000EC
:4015000000000000000000000000000000000000000000000000000000000000000000000000000000000000000000000000000000000000000000000000000000000000AB
:40154000000000000000000000000000000000000000000000000000000000000000000000000000000000000000000000000000000000000000000000000000000000006B
:020000040003F7
:0200000480007A
:40000000014F00400452004003640040350001402A010140600201404103014041040140410501404C06014034070140010B0140030D014005170140041801400219014019
:40004000044001400D4101400542014003430140064401400645014003460140084801400349014003500140015101400A361840194030083108806F850F870D04CF0630F5
:4000800009080A0F0F0510941260150118FD1A021C301EC928732C9E2D022E60310832FF3304350237013E043F51540F580459045B045F05820190049202930498029A0415
:4000C0009C029E049F02A401A701AC02AE04AF08B006B104B302B401B508B701BA02BE10D804D904DF010020031004020A080B820D800E48100411201202174818101E4451
:400100001F0121012218230225802604274928022F123208374138203A403B2059105A845B02610462107804C016C2DBC4A3CA58CC92CE0CD60FD806DE0204070803090A9E
:400140000C050E021002110C1204150616091806190C1A011C0622082B012C08300831013207350E39203E014041410349FF4AFF4BFF4DA04F0150185280580459045A0429
:400180005B045F016040628064406540668068406A806C406D206E8081018401850F8B108D028F0491029304970E9B089D20A108A201A50EAD01B001B120B31EB701B9809E
:4001C000BE01BF41C045C103C54EC6C2C730C82FC9FFCAFFCBFFCDAFCE07CF01D018D804D904DA04DF01E040E280E440E540E680E840EA80EC40ED20EE800108044007183D
:400200000E660F801080168017401A801D021E201F08202221882201240C251027482A402B502F083108320233903602371838163B803F20410A458A48814904500152D15F
:4002400053027680801087808A019010924093029422968897809D149E509F10A410A510A602A702AA10AD01B402C0E4C2F0C498CA2BCCEFCE2FD0D3D208EC02031E0430DA
:40028000050E060C0D01100C111812301304183C19181B021C141E2821012201240225162708281C2C282D102E142F023002311E3201343C370139803E01580459045F01CB
:4002C00080028204840187088B018C048E029301940198029A049B04A201A302A501A802AA04B108B201B302B504B606B701BA80BE04BF40D40FD804D904DB04DF01031039
:40030000054807400A040B820D2810A011201202172219081A0C1B111D401E221F40204022022302240425202640276029402A012B102D082F8032023310372238083A407C
:400340003B023C245D025EA05F08802085028604900893029440960C97809A419B089D089F10A090A118A380A603A710A910AA80C0B4C26BC45FCACBCCA5CE6BD6F0E201E4
:40038000050B070409070D0C0F011201130F190C1A011B022D082F01330F34014053410249FF4AFF4BFF4DA04F045018580459045A045F01604062C06440654066C068C052
:4003C0006AC06CC06EC0820292049B01A601AA02AD01B001B402B604B701BC80BD80BE10C014C103C5D1C702C813C9FFCAFFCBFFCDAFCE0FCF04D018D280D405D804D9047D
:40040000DA04DB04DF05E040E2C0E440E540E6C0E8C0EAC0ECC0EEC0000109020C200F801020120418011A081B411F20224027102B012F013020360137103C403D203E04FD
:400440004001410544204604482049014F805104520459015A88710279027B809040920493029F10A110A201B301C008C258C406CA18CCA4CE70D06BD210D60BDE01EA80C1
:40048000E201E020EA10EC02AF20B420B780E208E84039203F1059045F0127088708320433203610CC70032005010B02810187209608A610AB20C030C240E020E410EE20E5
:4004C000128093029608A610C4109302AE84B210050453105F40C004D404D6048B409740AF10B504E004EA0807808380C004678087409308AF04B701D880E210EE106708FA
:400500009308D880000108010A01003F43C0800000000000200000200000000000000000000B0B0000000000007F7F000000000000C0C000400000000200000E0C000C00B5
:40054000000000000000000000000000000000000000000000000000000000000000000000000000000000000000000000000000000000000000000000000000000000007B
:40058000000000000000000000000000000000000000000000000000000000000000000000000000000000000000000000000000000000000000000000000000000000003B
:4005C00000000000000000000000000000000000000000000000000000000000000000000000000000000000000000000000000000000000000000000000000000000000FB
:4006000000000000000000000000000000000000000000000000000000000000000000000000000000000000000000000000000000000000000000000000000000000000BA
:0200000490006A
:0400000000004005B7
:0200000490105A
:04000000BC90ACAF55
:0200000490303A
:0200000057AAFD
:0200000490402A
:4000000000000000000000000000000000000000000000000000000000000000000000000000000000000000000000000000000000000000000000000000000000000000C0
:400040000000000000000000000000000000000000000000000000000000000000000000000000000000000000000000000000000000000000000000000000000000000080
:400080000000000000000000000000000000000000000000000000000000000000000000000000000000000000000000000000000000000000000000000000000000000040
:4000C0000000000000000000000000000000000000000000000000000000000000000000000000000000000000000000000000000000000000000000000000000000000000
:0200000490501A
:0C00000000012E12306900012E1B881335
:00000001FF