:4000000000800020110000004D0600004D06000008B5044B1A6803F53F5302331A6000F01DFB00BFFA46004010B5054C237833B9044B13B10448AFF300800123237010BDB9
:400040006081FF1F0000000064160000084B10B51BB108490848AFF300800848036803B910BD074B002BFBD0BDE81040184700BF000000006481FF1F64160000C880FF1FDE
:40008000000000000122014B1A6070477C81FF1F1D4B1B68012B35D11C4BB3F90000C72830DC10B5013080B21C46188000F04CFD012000F0D9FC002000F0D6FC012000F026
:4000C000B9FC012000F00CFC0021084600F062FC0F4800F0F7FB0A21002000F05BFC208800F076FC0021012000F054FC094800F0E9FB0A21012000F04DFC034B988800F016
:4001000067FC10BD704700BF7C81FF1FCC80FF1F68160000741600001D4B1B68012B35D11C4BB3F90000642830DD10B5013880B21C46188000F008FD012000F095FC0020E2
:4001400000F092FC002000F075FC012000F0C8FB0021084600F01EFC0F4800F0B3FB0A21002000F017FC208800F032FC0021012000F010FC094800F0A5FB0A21012000F0CF
:4001800009FC034B988800F023FC10BD704700BF7C81FF1FCC80FF1F6816000074160000F8B5554B1B68012B40F0A58000F02CFD514B5860012000F093FB0021084600F031
:4001C000E9FB4E4800F07EFB0A21002000F0E2FB4B4BB3F902301BB9494B188800F0F8FB474BB3F90230012B76D1454C424E60687368C01A00F0B6FFA16801F007F8414DF8
:4002000028602868E16801F001F83F4F38602868216900F0FBFFB16800F0F0FE3B4E306028683B4B196800F0E7FE616900F0EEFFA16901F09FF8374D28603868364900F079
:40024000DDFE316800F0DAFE296800F0D7FE01F0A3F900B2A083C82801DDC822A283284BB3F91C30002B02DA7D22254B9A83244BB3F91C0000F076FF1F4BD96801F064F97A
:4002800010B1002000F0D6FB1D4BB3F91C0000F069FF194BD96801F075F910B1012000F0C9FB174CA08B00F04FFC012000F0DCFB002000F0D9FBB4F91C40204600F052FF35
:4002C0000D4BD860114A12689A600E4B1A68104B1A60A0B200F07CFB0021012000F05AFB0E4800F0EFFA0A21012000F053FB024B988800F06DFBF8BD7C81FF1F68160000E3
:40030000CC80FF1F9C81FF1F9881FF1FA081FF1FA481FF1F9481FF1F0000FA427416000008B500F063FC00F027FB00F08FFB00F093FC00F09FFD00F03BFE00F02BFE002160
:40034000084600F027FB1A4800F0BCFA0A21002000F020FB174BB3F902301BB9154B188800F036FB134BB3F90230012B03D1114B988B00F02DFB0021012000F00BFB0E4829
:4003800000F0A0FA0A21012000F004FB0B4B988800F01EFB62B60A4800F08CFB094800F0B1FB094800F0FEFC084800F08BFDFEE768160000CC80FF1F741600007C81FF1FB6
:4003C0009100000019010000A101000085000000FEE700BFF0B40022174611E050F82760F3B226F0FF0608E001EB420511F812406D78A5550132013BDBB2002BF4D101376B
:400400001A2FEBD9F0BC7047064B1B78DBB203F00701054A11701B09013213704422034B1A707047CF0100496E5800407658004008B50A46002101F00CF908BD38B5172205
:40044000264B1A801823264A137045F6BF5102321180023213700222224B1A7008224FF040231A70032103F5007319701E4B1B78DBB21E490B701E4B1A8041F25122023BA2
:400480001A80002419250CE01A4B1B7803F0010343EA440404F003044FF4F07000F098FD013D0DB1032CEFD115B90320FFF790FF114B4FF480721A8007221A7000220F4914
:4004C0000A704820023108701A700222033B1A700B4A137843F00303137038BD80400040824000400043004008010049A14600402242004025420040044000400640004015
:40050000A243004008B501F099F808BD38B572B6364A137843F00403137000240CE0344D630019194A0011462A44084691882858FFF77EFF0134E4B2072CF0D92D494FF0AA
:400540009040FFF747FF2C4A2C4B1A602C4A03F5D0631A602B4A137843F0020313701032137843F002031370274C237843F040032370A2F58632513A137843F01003137065
:40058000082222492248FFF7BDFF0A2221492248FFF7B8FF082221492148FFF7B3FF082220492148FFF7AEFF082220492048FFF7A9FF0A221F492048FFF7A4FF1F4A137877
:4005C00043F0080313701E4D61232B70FFF736FF81232B7001221B4B1A70FFF715FF0E2221461948FFF78EFF38BD00BFE84600407C1600006C000048040400845800014021
:400600004444044403500140A0430040F404004802510040FC040048F051004008050048125100401005004822510040180500483251004020050048605100402243004064
:400640000048004004000840B043004008B500F0C9FF03680C2B00D1FEE7FEE708B5104E104D16E029686B68AC68002204E051F8040B43F8040B0432A242F8D1E8680022DE
:4006800003E0002143F8041B04328242F9D11035013E002EE6D100F0ABFFFFF741FEFEE701000000D416000008B5104A104B1A60104A136843F40073136000230AE0032BF7
:4006C00003D80D4A52F8231000E00C490C4A42F8231001332F2BF2D90A4B1A780A4B1A70074A0A4B1A60FFF711FF08BD0004FA050CED00E014ED00E0000000004D06000039
:400700000080FF1FBC760040C080FF1F08ED00E010B5044605E0084B186800F059FCA4F50044B4F5004FF6D8034B586800FB04F000F04EFC10BD00BFEC80FF1F08B5034B6F
:400740001B7A00FB03F000F043FC08BDEC80FF1F10B50B4C237803F09F032370237803F0F00323702378184340F0100020700120FFF7E4FF237803F0EF03237010BD00BF26
:400780002051004038B505460E4C237843F020032370237803F0BF0323700020FFF7CEFF237803F0F003237023781D4345F0100525700120FFF7C2FF237803F0EF032370D3
:4007C00038BD00BF2051004070B5354B1A7802F08002D2B21A7033490A7802F0F00242F00F020A7001310A7802F0F0020A7001310A7802F0F0020A701A7802F0DF021A7029
:400800001A7842F040021A704FF4CA760020FFF795FF234D2B7843F010032B700120FFF78DFF214B1C78E4B22B7803F0EF032B700020FFF783FF04F00804E4B22B7843F0A7
:4008400010032B700120FFF779FF2B7803F0EF032B7014B90A20FFF771FF013E0CB1002ED4D10F4A137803F0BF031370137803F08003DBB213700232137803F0F003137097
:400880000132137803F0F00343F00F0313700132137803F0F00343F00F03137070BD00BF20510040225100402151004010B50446FFF78AFF2009FFF765FF04F00F00FFF754
:4008C00061FF10BD38B505460078012404E0FFF7EDFF285D0134E4B20028F8D138BD00BF10B50446FFF770FF2009FFF731FF04F00F00FFF72DFF10BD08B52820FFF708FF84
:400900000320FFF725FF0520FFF702FF0320FFF71FFF0F20FFF7FCFE0320FFF719FF0120FFF7F6FE0220FFF713FF0520FFF7F0FE0620FFF7D5FF0E20FFF7D2FF2C20FFF772
:40094000CFFF0820FFF7CCFF0120FFF7C9FF0C20FFF7C6FF0320FFF7C3FF0520FFF7D8FE08BD00BF08B50C20FFF7BAFF0122014B1A7008BD8C81FF1F08B5054B5B7823B96D
:40098000FFF7BAFF0122024B5A70FFF7EBFF08BD8C81FF1F08B5032819D8DFE800F002070D1381F08000FFF79BFF08BDA1F14000C0B2FFF795FF08BDA1F16C00C0B2FFF786
:4009C0008FFF08BDA1F12C00C0B2FFF789FF08BD10B584B000238DF80E30092211E0144BA3FB0013DB081C4603EB83035900431ADBB2303304A9114401F80C3C2046013AE3
:400A0000D2B20928EBD80A4BA3FB0013DB0803EB83035900431ADBB2303304A9114401F80C3C01AB9818FFF74DFF04B010BD00BFCDCCCCCC044A137803F07F03C001C0B268
:400A400018431070704700BF30510040054A137843F0010313701032137843F001031370704700BFA2430040044A137803F07F03C001C0B218431070704700BF005100404B
:400A8000014B1B681864704708ED00E04001C0B2014B1870704700BF00E400E00122014B1A60704700E100E00122014B1A60704780E100E010B50446FFF7F6FF2046FFF706
:400AC000DFFF0720FFF7E2FFFFF7E8FF10BD00BF014B1B685864704708ED00E04001C0B2014B1870704700BF01E400E00222014B1A60704700E100E00222014B1A607047D5
:400B000080E100E010B50446FFF7F6FF2046FFF7DFFF0720FFF7E2FFFFF7E8FF10BD00BF024A137843F080031370704777640040014B1880704700BF0C680040014B188005
:400B4000704700BF8C680040014B1880704700BF4C680040014B1870704700BF87640040014B1878704700BF67640040014B188880B27047AC68004008B501E0FFF7F6FFF9
:400B8000FFF7EEFF10F0100FF8D108BD10B5154A137803F0C00343F0090313701F32137843F001031370104C237843F00103237040F2CF70FFF7BCFF40F2CF70FFF7BEFFE1
:400BC0006420FFF7C1FF0020FFF7C4FF00F008FA237843F01003237000F006FAFFF7CCFF10BD00BF776400409764004008B5054B1B7823B9FFF7CAFF0122024B1A70FFF7BE
:400C00008FFF08BD8E81FF1F08B500F051F8A0F5004000B208BD00BF024B187800F00F00704700BF61640040014B1870704700BF8164004008B50F20FFF7F6FFFFF7ECFFB5
:400C400000F0CEF9034A137843F01003137000F0CBF908BD9164004008B500F07BF84FF4004000F01FF8044B1B7813B90122024B1A70FFF7DFFF08BD8F81FF1F024A13787E
:400C800043F080031370704772640040014B1870704700BF80640040014B1878704700BF60640040014B1880704700BF04680040024B1B78024B188880B270470264004008
:400CC00084680040014B188880B2704784680040014B1880704700BF44680040014B1880704700BF6468004008B501E0FFF7EAFFFFF7D2FF10F0400FF8D108BD08B5134BDF
:400D00001A7802F0F8021A701A7802F0FC021A70FFF7EAFF4FF40040FFF7DAFF4FF40040FFF7C0FF0020FFF7B1FFFFF7B5FF4FF40040FFF7D3FF00F053F9054A137843F032
:400D40001003137000F050F908BD00BF726400409064004008B5054B1B7823B9FFF7CEFF0122024B1A70FFF789FF08BD9081FF1F014B1B689864704708ED00E04001C0B221
:400D8000014B1870704700BF02E400E00422014B1A60704700E100E00422014B1A60704780E100E010B50446FFF7F6FF2046FFF7DFFF0720FFF7E2FFFFF7E8FF10BD00BF40
:400DC000084A137843F0010313701032137843F00103137002F64D32137843F001031370704700BFA3430040014B1870704700BF034F0040014B1880704700BF044F0040B4
:400E0000014B1880704700BF064F004008B5164A137803F0010313700232137803F0FC031370124B1A7802F0CF021A701A7842F030021A701A7802F0F0021A701A7842F0ED
:400E40000F021A700A4A137843F00103137042F20F70FFF7CFFF42F20F70FFF7D1FF0020FFF7C2FF08BD00BF004F00400B4F0040014F004008B5054B1B7823B9FFF7C6FF03
:400E80000122024B1A70FFF79BFF08BD9181FF1F014B1B68D864704708ED00E04001C0B2014B1870704700BF03E400E00822014B1A60704700E100E00822014B1A60704749
:400EC00080E100E010B50446FFF7F6FF2046FFF7DFFF0720FFF7E2FFFFF7E8FF10BD00BF084A137843F0020313701032137843F00203137002F65932137843F0010313702E
:400F0000704700BFA3430040014B1870704700BF0F4F0040014B1880704700BF104F0040014B1880704700BF124F004008B5164A137803F0010313700232137803F0FC0366
:400F40001370124B1A7802F0CF021A701A7842F030021A701A7802F0F0021A701A7842F00F021A700A4A137843F00103137041F26F70FFF7CFFF41F26F70FFF7D1FF00206C
:400F8000FFF7C2FF08BD00BF0C4F0040174F00400D4F004008B5054B1B7823B9FFF7C6FF0122024B1A70FFF79BFF08BD9281FF1F054A137843F0020313701032137843F0CD
:400FC00002031370704700BFA2430040000000000230800803D000BF01380046FCD17047EFF3108072B6704780F31088704700BF80F0004002E000BF81F0004142001FBF8A
:401000005FEA410392EA030F7FEA226C7FEA236C6AD04FEA1262D2EB1363C1BFD218414048404140B8BF5B42192B88BF704710F0004F40F4000020F07F4018BF404211F096
:40104000004F41F4000121F07F4118BF494292EA030F3FD0A2F1010241FA03FC10EB0C00C3F1200301FA03F100F0004302D5494260EB4000B0F5000F13D3B0F1807F06D34B
:4010800040084FEA310102F10102FE2A51D2B1F1004F40EBC25008BF20F0010040EA03007047490040EB000010F4000FA2F10102EDD1B0FA80FCACF1080CB2EB0C0200FAFB
:4010C0000CF0AABF00EBC25052421843BCBFD0401843704792F0000F81F4000106BF80F400000132013BB5E74FEA41037FEA226C18BF7FEA236C21D092EA030F04D092F09F
:40110000000F08BF0846704790EA010F1CBF0020704712F07F4F04D1400028BF40F00040704712F100723CBF00F50000704700F0004343F0FE4040F4000070477FEA22620D
:4011400016BF08467FEA23630146420206BF5FEA412390EA010F40F4800070474FF0000304E000BF10F0004348BF40425FEA000C08BF704743F0964301464FF000001CE059
:4011800050EA010208BF70474FF000030AE000BF50EA010208BF704711F0004302D5404261EB41015FEA010C02BF84460146002043F0B64308BFA3F18053A3F50003BCFAB0
:4011C0008CF2083AA3EBC25310DB01FA02FC634400FA02FCC2F12002BCF1004F20FA02F243EB020008BF20F00100704702F1200201FA02FCC2F1200250EA4C0021FA02F2F3
:4012000043EB020008BF20EADC7070474FF0FF0C1CEAD0521EBF1CEAD15392EA0C0F93EA0C0F6FD01A4480EA010C400218BF5FEA41211ED04FF0006343EA501043EA51117E
:40124000A0FB01310CF00040B1F5000F3EBF490041EAD3715B0040EA010062F17F02FD2A1DD8B3F1004F40EBC25008BF20F00100704790F0000F0CF0004C08BF49024CEAA7
:40128000502040EA51207F3AC2BFD2F1FF0340EAC250704740F400004FF00003013A5DDC12F1190FDCBF00F000407047C2F10002410021FA02F1C2F1200200FA02FC5FEA80
:4012C000310040F1000053EA4C0308BF20EADC70704792F0000F00F0004C02BF400010F4000F013AF9D040EA0C0093F0000F01F0004C02BF490011F4000F013BF9D041EAF4
:401300000C018FE70CEAD15392EA0C0F18BF93EA0C0F0AD030F0004C18BF31F0004CD8D180EA010000F00040704790F0000F17BF90F0004F084691F0000F91F0004F14D0BF
:4013400092EA0C0F01D142020FD193EA0C0F03D14B0218BF084608D180EA010000F0004040F0FE4040F40000704740F0FE4040F4400070474FF0FF0C1CEAD0521EBF1CEA47
:40138000D15392EA0C0F93EA0C0F69D0A2EB030280EA010C49024FEA402037D04FF0805343EA111143EA10130CF000408B4238BF5B0042F17D024FF4000C8B4224BF5B1A7B
:4013C00040EA0C00B3EB510F24BFA3EB510340EA5C00B3EB910F24BFA3EB910340EA9C00B3EBD10F24BFA3EBD10340EADC001B0118BF5FEA1C1CE0D1FD2A3FF650AF8B424F
:4014000040EBC25008BF20F0010070470CF0004C4CEA50207F32C2BFD2F1FF0340EAC250704740F400004FF00003013A37E792F0000F00F0004C02BF400010F4000F013A1D
:40144000F9D040EA0C0093F0000F01F0004C02BF490011F4000F013BF9D041EA0C0195E70CEAD15392EA0C0F08D142027FF47DAF93EA0C0F7FF470AF084676E793EA0C0FED
:4014800004D14B023FF44CAF08466EE730F0004C18BF31F0004CCAD130F000427FF45CAF31F000437FF43CAF5FE700BF4FF0FF3C06E000BF4FF0010C02E000BF4FF0010CEF
:4014C0004DF804CD4FEA40024FEA41037FEA226C18BF7FEA236C11D001B052EA530C18BF90EA010F58BFB2EB030088BFC81738BF6FEAE17018BF40F0010070477FEA226C56
:4015000002D15FEA402C05D17FEA236CE4D15FEA412CE1D05DF8040B704700BF844608466146FFE70FB5FFF7C9FF002848BF10F1000F0FBD4DF808EDFFF7F4FF0CBF01201E
:4015400000205DF808FB00BF4DF808EDFFF7EAFF34BF012000205DF808FB00BF4DF808EDFFF7E0FF94BF012000205DF808FB00BF4DF808EDFFF7D2FF94BF012000205DF82C
:4015800008FB00BF4DF808EDFFF7C8FF34BF012000205DF808FB00BF4FEA4002B2F1FE4F0FD34FF09E03B3EB12620DD94FEA002343F0004310F0004F23FA02F018BF404279
:4015C00070474FF00000704712F1610F01D1420205D110F0004008BF6FF0004070474FF000007047014B1868704700BF5C81FF1F0E4B70B51E460E4C0025E41AA410A54255
:4016000004D056F8253098470135F8E700F050F8084B094C1E46E41AA4100025A54204D056F8253098470135F8E770BDBC160000BC160000BC160000C416000010B5431E2F
:401640000A44914204D011F8014B03F8014FF8E710BD03460244934202D003F8011BFAE77047000000000000636F6E74726F6C3A00000000616E67756C6F3A00004F0040BA
:401680001800405100402000C0510040100000000140001000140140000800400140000A004C0140000200500140200043000000F8B500BFF8BC08BC9E4670474D00000038
:4016C000A9060000F8B500BFF8BC08BC9E46704729000000E8160000C880FF1F9800000048000000000000000000000078000100A20000009A99193E000020410AD7233C09
:401700000000FA430AD7233C640000000000E02EC05D00001800000000366E010000000000000000000000000000000000000000000000000000000000000000AC1600001E
:40174000000000000000000000000000000000000000000000000000000000000000000000000000000000000000000000000000000000000000000000000000FC80FF1FCF
:401780000000000000000000000000000000000000000000000000000000000000000000000000000000000000000000000000000000000000000000000000000000000029
:4017C00000000000000000000000000000000000000000000000000000000000000000000000000000000000000000000000000000000000000000000000000000000000E9
:4018000000000000000000000000000000000000000000000000000000000000000000000000000000000000000000000000000000000000000000000000000000000000A8
:401840000000000000000000000000000000000000000000000000000000000000000000000000000000000000000000000000000000000000000000000000000000000068
:020000040003F7
:0200000480007A
:40000000034F004003520040036400402D0001402E010140530201403C03014048040140330501405A0601403A07014001090140010B0140020D014004170140064001400A
:400040000E4101400B4201400143014005440140044501400446014002470140034801400349014003500140015101400A4B0D10164B184030083104806F810F870D0A02BD
:400080000E01100813041C011F02220428022B012C042D08300131023204330134083508360237043E553F10540F580459045B045F058B0191019701A102A401A902AA0114
:4000C000AC01B201B302B701B908BE04BF40D40FD804D904DB04DF0100800120020409800B401080120A15801724180819081A411E2021D0220A23022644272028022B0835
:400100002C802F0830803101360437023D2059285A415C085D015EA06104621078088910C003C209C4EBCAACCCC9CE20D6FFD806DE02E620040A0604080C0C0E100C120219
:40014000140717011A121C0120012404260828102E1030103301340E360138803E414041410349FF4AFF4BFF4DA04F0150185280580459045A045B045F01604062806440DF
:400180006540668068406A806C406D206E8089068C018D0C910A9B01A50CB30EB501B601B908BE40C041C103C54EC6C3C722C83FC9FFCAFFCBFFCDAFCE07CF01D018D804E0
:4001C000D904DA04DF01E040E280E440E540E680E840EA80EC40ED20EE80018004800528072008080B100C810E880F101502175818021D821E0820042310271029083001DF
:400200003220360438803B104182430445824704484049055080510152145308774079017A408030818095019C089D059E149F04A220A4C0A510A708A804B220B340B402DC
:40024000C0E1C2F0C4F0CA02CC45CE0CD0DBE820EC010240041005040620070208100A200B100C0C0E02100B11021204130414071701182019021A1F1B0420102220240836
:400280002601280C2A012B082D022E802F04300F31103240330834303506368037013A203B20580459045F01849E85048660883089078AC98CCF8D078E3090FD920293045C
:4002C00094739707989499019A609B02A60FA708A901AB02B4FFB50FB802BE11D804D904DF01002502100302048007280A440B100E840F10128213241704188119611A2468
:400300001B021F2120202286230C2510270429402A102D202F2032163501372438203B043E403F1483018501871090249310948098209D209F2CA510A640B401C0EFC27EDE
:40034000C42FCA6CCCE7CE76021005080701080509070A0A0C0C0E03100F170F1803190C1A0C1B022007210C23012610280A2A052D0B2F04300F330F36104053410249FFB5
:400380004AFF4BFF4DA04F045018580459045A045F01604062C06440654066C068C06AC06CC06EC086088B01920196029E02A804AD01B008B204B402B601B701BC80BD8063
:4003C000BE14C056C103C5D0C610C702C81AC9FFCAFFCBFFCDAFCE0FCF04D018D280D405D804D904DA04DB04DF05E040E2C0E440E540E6C0E8C0EAC0ECC0EEC00210048252
:4004000006020708090A0A020E841004150116101720180219481A0A1B411EC01F40224027202B012E4237283A103E043F1041084420460449414A044F80510852145901FF
:400440005A88710278207A049080910192049310964098249B089F20A640B004C0D4C25DC472CA98CC60CE64D062D21CD60BDE04EE80E840EA10EC01B108B340EA80EE801B
:4004800030203304344037088820CCF0000807100B0269046B0483119C409F0CA404B004C030C240E020E4201104170859085D08810895049C409F08C430D6C0E6209C401E
:4004C000050450015710C004D4039402AB10B504EA080640B401C004E802B240EE019101B040B1015D019101D680000108010A0100FF000043C080000000000020000020C9
:400500000000000000000000000B0B0000000000007F7F000000000000C0C000400000000200000E0C000C00000000000000000000000000000000000000000000000000BF
:40054000000000000000000000000000000000000000000000000000000000000000000000000000000000000000000000000000000000000000000000000000000000007B
:40058000000000000000000000000000000000000000000000000000000000000000000000000000000000000000000000000000000000000000000000000000000000003B
:4005C00000000000000000000000000000000000000000000000000000000000000000000000000000000000000000000000000000000000000000000000000000000000FB
:4006000000000000000000000000000000000000000000000000000000000000000000000000000000000000000000000000000000000000000000000000000000000000BA
:0200000490006A
:0400000000004005B7
:0200000490105A
:04000000BC90ACAF55
:0200000490303A
:02000000894B2A
:0200000490402A
:4000000000000000000000000000000000000000000000000000000000000000000000000000000000000000000000000000000000000000000000000000000000000000C0
:400040000000000000000000000000000000000000000000000000000000000000000000000000000000000000000000000000000000000000000000000000000000000080
:400080000000000000000000000000000000000000000000000000000000000000000000000000000000000000000000000000000000000000000000000000000000000040
:4000C0000000000000000000000000000000000000000000000000000000000000000000000000000000000000000000000000000000000000000000000000000000000000
:0200000490501A
:0C00000000012E12306900012E1CB9B462
:00000001FF